:10F800000C943E7C0C945B7C0C945B7C0C945B7C39
:10F810000C945B7C0C945B7C0C945B7C0C945B7C0C
:10F820000C945B7C0C945B7C0C945B7C0C945B7CFC
:10F830000C945B7C0C945B7C0C945B7C0C945B7CEC
:10F840000C945B7C0C945B7C0C945B7C0C945B7CDC
:10F850000C945B7C0C945B7C0C945B7C0C945B7CCC
:10F860000C945B7C0C945B7C0C945B7C0C945B7CBC
:10F870000C945B7C0C945B7C0C945B7C11241FBE11
:10F88000CFEFD0E1DEBFCDBF11E0A0E0B1E0E8EA0C
:10F89000FFEF02C005900D92A230B107D9F712E038
:10F8A000A2E0B1E001C01D92AD30B107E1F70E94C6
:10F8B0003D7D0C94D27F0C94007C982F9595959566
:10F8C00095959595905D8F708A307CF0282F295AF8
:10F8D0008091C00085FFFCCF9093C6008091C0004E
:10F8E00085FFFCCF2093C6000895282F205DF0CF20
:10F8F000982F8091C00085FFFCCF9093C60008959B
:10F90000EF92FF920F931F932898EE24FF24870114
:10F910008091C00087FD17C00894E11CF11C011DF7
:10F92000111D81E4E81682E4F8068FE0080780E004
:10F93000180770F3E0910401F09105010995809199
:10F94000C00087FFE9CF289A8091C6001F910F91D0
:10F95000FF90EF9008950E94807C982F8091C000C6
:10F9600085FFFCCF9093C60091362CF490330CF0B9
:10F970009053892F08959755892F08951F930E94BA
:10F98000AB7C182F0E94AB7C1295107F810F1F91CA
:10F990000895282F882351F090E08091C00087FFC0
:10F9A000FCCF8091C6009F5F9217B8F308951F9314
:10F9B000182F0E94807C803249F0809103018F5F74
:10F9C000809303018530C1F01F9108958091C0009C
:10F9D00085FFFCCF84E18093C6008091C00085FF45
:10F9E000FCCF1093C6008091C00085FFFCCF80E162
:10F9F0008093C6001F910895E0910401F0910501E4
:10FA000009951F9108950E94807C803241F0809179
:10FA100003018F5F80930301853081F00895809109
:10FA2000C00085FFFCCF84E18093C6008091C000B8
:10FA300085FFFCCF80E18093C6000895E09104012A
:10FA4000F09105010995089540E951E08823A1F05E
:10FA5000289A28EE33E0FA013197F1F7215030402F
:10FA6000D1F7289828EE33E0FA013197F1F72150C9
:10FA70003040D1F7815061F70895000080E1809314
:10FA8000C4001092C50088E18093C10086E0809395
:10FA9000C2005098589A209A82E00E94247D44E146
:10FAA000F42E3EE1E32E26E9D22E9AE0C92E80E123
:10FAB000B82EAA24A39401E4902E16E5812EB2E577
:10FAC0007B2EA0E26A2EF9E45F2EE3E54E2E70E570
:10FAD000372E0E94807C8033B1F1813309F443C01A
:10FAE000803409F47BC0813409F48FC0823471F111
:10FAF000853409F47DC0803531F1823521F18135BD
:10FB000011F1853509F490C0863509F4A0C084361A
:10FB100009F4B1C0843709F424C1853709F491C1CF
:10FB2000863709F47DC0809103018F5F80930301C4
:10FB3000853079F6E0910401F091050109950E9464
:10FB4000807C803351F60E94037DC3CF90E080918A
:10FB5000C00087FFFCCF8091C6009F5F9431B9F74A
:10FB60000E94037DB6CF0E94807C8032E1F68091B6
:10FB7000C00085FFFCCFF092C6008091C00085FFD9
:10FB8000FCCF9092C6008091C00085FFFCCF809290
:10FB9000C6008091C00085FFFCCF7092C6008091A6
:10FBA000C00085FFFCCF6092C6008091C00085FF39
:10FBB000FCCF5092C6008091C00085FFFCCF4092E0
:10FBC000C6008091C00085FFFCCF3092C6008091B6
:10FBD000C00085FFFCCFB092C6007BCF0E94807C26
:10FBE000863808F4B0CF0E94807C0E94037D71CFDC
:10FBF00090E08091C00087FFFCCF8091C6009F5F9E
:10FC00009530B9F70E94037D64CF0E94807C8038D4
:10FC1000D1F0813861F1823809F49FC0883979F0D8
:10FC200080E00E94D77C55CF0E94807C80930601A3
:10FC30000E94807C809307010E94037D4ACF83E06D
:10FC40000E94D77C46CF82E00E94D77C42CF0E94A0
:10FC5000807C803309F48FC190E08091C00087FFE1
:10FC6000FCCF8091C6009F5F9330B9F7D9CF81E078
:10FC70000E94D77C2ECF0E94807C809309020E9434
:10FC8000807C8093080280910C028E7F80930C020E
:10FC90000E94807C853429F480910C0281608093DD
:10FCA0000C028091080290910902892B89F000E0F2
:10FCB00010E00E94807CF801E85FFE4F80830F5FB8
:10FCC0001F4F80910802909109020817190788F3C5
:10FCD0000E94807C803209F026CF80910C0280FF48
:10FCE000DAC04091060150910701440F551F50930F
:10FCF00007014093060160910802709109026115A5
:10FD00007105F1F080E090E09A01280F391FFC01A5
:10FD1000E85FFE4FE081F999FECF1FBA32BD21BDE9
:10FD2000E0BD0FB6F894FA9AF99A0FBE01968617BD
:10FD3000970750F3460F571F509307014093060152
:10FD40008091C00085FFFCCFF092C6008091C0007A
:10FD500085FFFCCFB092C600BCCE80E10E94D77C6C
:10FD6000B8CE0E94807C809309020E94807C8093A0
:10FD700008028091060190910701880F991F9093C6
:10FD80000701809306010E94807C853409F47DC0C0
:10FD900080910C028E7F80930C020E94807C8032C6
:10FDA00009F097CE8091C00085FFFCCFF092C6008D
:10FDB00000910802109109020115110509F438C0DB
:10FDC00080910C02B82FB170A82FA695A170E09178
:10FDD0000601F09107019F012F5F3F4FB90140E0FD
:10FDE00050E0BB23B1F4AA2339F494918091C00070
:10FDF00085FFFCCF9093C6004F5F5F4FCB0101960C
:10FE0000F9014017510780F4BC012F5F3F4FBB231E
:10FE100051F3F999FECFF2BDE1BDF89A90B580910A
:10FE2000C00085FFFCCFE6CF709307016093060109
:10FE30008091C00085FDCFCE8091C00085FFF8CFB6
:10FE4000CACE0E94807C803209F06DCE8091C000C5
:10FE500085FFFCCFF092C6008091C00085FFFCCFEB
:10FE6000E092C6008091C00085FFFCCFD092C60012
:10FE70008091C00085FFFCCFC092C6008091C00079
:10FE800085FFFCCFB092C60024CE80910C02816029
:10FE900080930C0282CF809107018823880F880B02
:10FEA0008A2180930B028091060190910701880FAF
:10FEB000991F90930701809306018091080280FFAB
:10FEC00009C080910802909109020196909309025D
:10FED00080930802F894F999FECF1127E09106016A
:10FEE000F0910701C8E0D1E08091080290910902E9
:10FEF000103091F40091570001700130D9F303E004
:10FF000000935700E8950091570001700130D9F334
:10FF100001E100935700E89509901990009157006E
:10FF200001700130D9F301E000935700E895139573
:10FF3000103898F011270091570001700130D9F363
:10FF400005E000935700E8950091570001700130DB
:10FF5000D9F301E100935700E8953296029709F032
:10FF6000C7CF103011F00296E5CF11248091C00068
:10FF700085FFE6CEE9CE0E94807C0E94807C182F0F
:10FF80000E94807C112351F0113021F08AE00E9400
:10FF9000D77C9FCD86E90E94D77C9BCD8EE10E94C5
:08FFA000D77C97CDF894FFCF48
:02FFA8008000D7
:040000030000F80001
:00000001FF
